{
    "genesis": {
        "config": {
            "chainId": 1,
            "homesteadBlock": 0,
            "eip150Block": 0,
            "eip155Block": 0,
            "eip158Block": 0,
            "byzantiumBlock": 0,
            "constantinopleBlock": 0,
            "petersburgBlock": 0,
            "istanbulBlock": 0,
            "muirGlacierBlock": 0,
            "berlinBlock": 0,
            "londonBlock": 0,
            "clique": {
                "period": 5,
                "epoch": 30000
            },
            "terminalTotalDifficulty": 0
        },
        "nonce": "0x42",
        "timestamp": "0x0",
        "extraData": "0x0000000000000000000000000000000000000000000000000000000000000000a94f5374fce5edbc8e2a8697c15331677e6ebf0b0000000000000000000000000000000000000000000000000000000000000000000000000000000000000000000000000000000000000000000000000000000000",
        "gasLimit": "0x1C9C380",
        "difficulty": "0x400000000",
        "mixHash": "0x0000000000000000000000000000000000000000000000000000000000000000",
        "coinbase": "0x0000000000000000000000000000000000000000",
        "alloc": {
            "0xa94f5374fce5edbc8e2a8697c15331677e6ebf0b": {
                "balance": "0x6d6172697573766477000000"
            },
            "0x00000000000000000000000000000000b0b0face": {
                "code": "0x40600052",
                "storage": {},
                "balance": "0x0",
                "nonce": "0x0"
            },
            "0x000000000000000000000000000000ca1100f022": {
                "code": "0x444455",
                "storage": {},
                "balance": "0x0",
                "nonce": "0x0"
            }
        },
        "number": "0x0",
        "gasUsed": "0x0",
        "parentHash": "0x0000000000000000000000000000000000000000000000000000000000000000",
        "baseFeePerGas": "0x7"
    },
    "steps": 
    [
        {
            "comment": "Transaction that calls 0x000000000000000000000000000000ca1100f022 and contains the RANDOM opcode into storage.",
            "method": "eth_sendRawTransaction",
            "params": [
                "0xf8668081808401312d0094000000000000000000000000000000ca1100f02284ec43921b8026a020ea8ae79858bf894d88ab9603627bc7951534ad60cdad01f7c04b2fab636674a05107099d4aff08b8e20dfac21d5a1097f45bb547b9bf392b37b5a9e32e8d87f9"
            ],
            "expect": "0x28d01c44d46217e141e02783a89ffff35d3f91fd9ce91649fad6375fd5c0beca"
        },
        {
            "method": "engine_forkchoiceUpdatedV1",
            "params": [
                {
                    "headBlockHash": "0xf329a1589055aad9ad72f95a3ed4a40334a88c9f0e7eca667ffc0b4f809f3317",
                    "safeBlockHash": "0xf329a1589055aad9ad72f95a3ed4a40334a88c9f0e7eca667ffc0b4f809f3317",
                    "finalizedBlockHash": "0x0000000000000000000000000000000000000000000000000000000000000000"
                },
                {
                    "timestamp": "0x5",
                    "random": "0xffffffffffffffffffffffffffffffffffffffffffffffffffffffffffffffff",
                    "feeRecipient": "0xa94f5374fce5edbc8e2a8697c15331677e6ebf0b"
                }
            ],
            "expect": {
                "status": "SUCCESS",
                "payloadId": ":re 0x[0-9a-f]{16}"
            }
        },
        {
            "method": "engine_getPayloadV1",
            "params": [
                ":payloadId"
            ],
            "expect": {
                "parentHash": "0xf329a1589055aad9ad72f95a3ed4a40334a88c9f0e7eca667ffc0b4f809f3317",
                "coinbase": "0xa94f5374fce5edbc8e2a8697c15331677e6ebf0b",
                "stateRoot": "0x757f4ed1e55130d5ea2b580d7c2e60d8eb1ead0bb2b3c4fbd5adf245e7bdf4cd",
                "receiptRoot": "0x4e3c608a9f2e129fccb91a1dae7472e78013b8e654bccc8d224ce3d63ae17006",
                "logsBloom": "0x00000000000000000000000000000000000000000000000000000000000000000000000000000000000000000000000000000000000000000000000000000000000000000000000000000000000000000000000000000000000000000000000000000000000000000000000000000000000000000000000000000000000000000000000000000000000000000000000000000000000000000000000000000000000000000000000000000000000000000000000000000000000000000000000000000000000000000000000000000000000000000000000000000000000000000000000000000000000000000000000000000000000000000000000000000000",
                "random": "0xffffffffffffffffffffffffffffffffffffffffffffffffffffffffffffffff",
                "blockNumber": "0x1",
                "gasLimit": "0x1c9c380",
                "gasUsed": "0xa860",
                "timestamp": "0x5",
                "extraData": "0x",
                "baseFeePerGas": "0x7",
                "blockHash": "0x2628880cd29a2e6e2e91b5ac76efd3c4c50d1c0fed4ff2ea8d0cd6d1d1b9d21c",
                "transactions": [
                    "0xf8668081808401312d0094000000000000000000000000000000ca1100f02284ec43921b8026a020ea8ae79858bf894d88ab9603627bc7951534ad60cdad01f7c04b2fab636674a05107099d4aff08b8e20dfac21d5a1097f45bb547b9bf392b37b5a9e32e8d87f9"
                ]
            }
        },
        {
            "method": "engine_executePayloadV1",
            "params": [
                {
                    "parentHash": "0xf329a1589055aad9ad72f95a3ed4a40334a88c9f0e7eca667ffc0b4f809f3317",
                    "coinbase": "0xa94f5374fce5edbc8e2a8697c15331677e6ebf0b",
                    "stateRoot": "0x757f4ed1e55130d5ea2b580d7c2e60d8eb1ead0bb2b3c4fbd5adf245e7bdf4cd",
                    "receiptRoot": "0x4e3c608a9f2e129fccb91a1dae7472e78013b8e654bccc8d224ce3d63ae17006",
                    "logsBloom": "0x00000000000000000000000000000000000000000000000000000000000000000000000000000000000000000000000000000000000000000000000000000000000000000000000000000000000000000000000000000000000000000000000000000000000000000000000000000000000000000000000000000000000000000000000000000000000000000000000000000000000000000000000000000000000000000000000000000000000000000000000000000000000000000000000000000000000000000000000000000000000000000000000000000000000000000000000000000000000000000000000000000000000000000000000000000000",
                    "random": "0xffffffffffffffffffffffffffffffffffffffffffffffffffffffffffffffff",
                    "blockNumber": "0x1",
                    "gasLimit": "0x1c9c380",
                    "gasUsed": "0xa860",
                    "timestamp": "0x5",
                    "extraData": "0x",
                    "baseFeePerGas": "0x7",
                    "blockHash": "0x2628880cd29a2e6e2e91b5ac76efd3c4c50d1c0fed4ff2ea8d0cd6d1d1b9d21c",
                    "transactions": [
                        "0xf8668081808401312d0094000000000000000000000000000000ca1100f02284ec43921b8026a020ea8ae79858bf894d88ab9603627bc7951534ad60cdad01f7c04b2fab636674a05107099d4aff08b8e20dfac21d5a1097f45bb547b9bf392b37b5a9e32e8d87f9"
                    ]
                }
            ],
            "expect": {
                "status": "VALID",
                "latestValidHash": "0x2628880cd29a2e6e2e91b5ac76efd3c4c50d1c0fed4ff2ea8d0cd6d1d1b9d21c"
            }
        },
        {
            "method": "engine_forkchoiceUpdatedV1",
            "params": [
                {
                    "headBlockHash": "0x2628880cd29a2e6e2e91b5ac76efd3c4c50d1c0fed4ff2ea8d0cd6d1d1b9d21c",
                    "safeBlockHash": "0x2628880cd29a2e6e2e91b5ac76efd3c4c50d1c0fed4ff2ea8d0cd6d1d1b9d21c",
                    "finalizedBlockHash": "0x2628880cd29a2e6e2e91b5ac76efd3c4c50d1c0fed4ff2ea8d0cd6d1d1b9d21c"
                },
                null
            ],
            "expect": {
                "status": "SUCCESS",
                "payloadId": null
            }
        },
        {
            "method": "eth_getStorageAt",
            "params": [
                "0x000000000000000000000000000000ca1100f022",
                "0xffffffffffffffffffffffffffffffffffffffffffffffffffffffffffffffff",
                "latest"
            ],
            "expect": "0xffffffffffffffffffffffffffffffffffffffffffffffffffffffffffffffff"
        }
    ]
}