{
    "comment0": "Call getPayloadV1 twice after requesting building a payload with forkchoiceUpdatedV1, send a transaction between calls,",
    "comment1": "the transaction should not be included in the payload built.",
    "genesis": {
        "config": {
            "chainId": 1,
            "homesteadBlock": 0,
            "eip150Block": 0,
            "eip155Block": 0,
            "eip158Block": 0,
            "byzantiumBlock": 0,
            "constantinopleBlock": 0,
            "petersburgBlock": 0,
            "istanbulBlock": 0,
            "muirGlacierBlock": 0,
            "berlinBlock": 0,
            "londonBlock": 0,
            "clique": {
                "period": 5,
                "epoch": 30000
            },
            "terminalTotalDifficulty": 0
        },
        "nonce": "0x42",
        "timestamp": "0x0",
        "extraData": "0x0000000000000000000000000000000000000000000000000000000000000000a94f5374fce5edbc8e2a8697c15331677e6ebf0b0000000000000000000000000000000000000000000000000000000000000000000000000000000000000000000000000000000000000000000000000000000000",
        "gasLimit": "0x1C9C380",
        "difficulty": "0x400000000",
        "mixHash": "0x0000000000000000000000000000000000000000000000000000000000000000",
        "coinbase": "0x0000000000000000000000000000000000000000",
        "alloc": {
            "0xa94f5374fce5edbc8e2a8697c15331677e6ebf0b": {
                "balance": "0x6d6172697573766477000000"
            }
        },
        "number": "0x0",
        "gasUsed": "0x0",
        "parentHash": "0x0000000000000000000000000000000000000000000000000000000000000000",
        "baseFeePerGas": "0x7"
    },
    "steps": [
        {
            "method": "engine_forkchoiceUpdatedV1",
            "params": [
                {
                    "headBlockHash": "0x3b8fb240d288781d4aac94d3fd16809ee413bc99294a085798a589dae51ddd4a",
                    "safeBlockHash": "0x3b8fb240d288781d4aac94d3fd16809ee413bc99294a085798a589dae51ddd4a",
                    "finalizedBlockHash": "0x0000000000000000000000000000000000000000000000000000000000000000"
                },
                {
                    "timestamp": "0x5",
                    "random": "0x0000000000000000000000000000000000000000000000000000000000000000",
                    "feeRecipient": "0xa94f5374fce5edbc8e2a8697c15331677e6ebf0b"
                }
            ],
            "expect": {
                "status": "SUCCESS",
                "payloadId": ":re 0x[0-9a-f]{16}"
            }
        },
        {
            "method": "engine_getPayloadV1",
            "params": [
                ":payloadId"
            ],
            "expect": {
                "parentHash": "0x3b8fb240d288781d4aac94d3fd16809ee413bc99294a085798a589dae51ddd4a",
                "coinbase": "0xa94f5374fce5edbc8e2a8697c15331677e6ebf0b",
                "stateRoot": "0xca3149fa9e37db08d1cd49c9061db1002ef1cd58db2210f2115c8c989b2bdf45",
                "receiptRoot": "0x56e81f171bcc55a6ff8345e692c0f86e5b48e01b996cadc001622fb5e363b421",
                "logsBloom": "0x00000000000000000000000000000000000000000000000000000000000000000000000000000000000000000000000000000000000000000000000000000000000000000000000000000000000000000000000000000000000000000000000000000000000000000000000000000000000000000000000000000000000000000000000000000000000000000000000000000000000000000000000000000000000000000000000000000000000000000000000000000000000000000000000000000000000000000000000000000000000000000000000000000000000000000000000000000000000000000000000000000000000000000000000000000000",
                "random": "0x0000000000000000000000000000000000000000000000000000000000000000",
                "blockNumber": "0x1",
                "gasLimit": "0x1c9c380",
                "gasUsed": "0x0",
                "timestamp": "0x5",
                "extraData": "0x",
                "baseFeePerGas": "0x7",
                "blockHash": "0x3559e851470f6e7bbed1db474980683e8c315bfce99b2a6ef47c057c04de7858",
                "transactions": []
            }
        },
        
        {
            "txsource": {
                "data" : "",
                "gasLimit" : "0x5208",
                "gasPrice" : "0x10",
                "nonce" : "0x01",
                "to" : "0xa94f5374fce5edbc8e2a8697c15331677e6ebf0b",
                "value" : "0x01",
                "chainId": 1,
                "secretKey" : "0x45a915e4d060149eb4365960e6a7a45f334393093061116b197e3240065ff2d8"
            },
            "method": "eth_sendRawTransaction",
            "params": [
                "0xf85f011082520894a94f5374fce5edbc8e2a8697c15331677e6ebf0b018026a009b48a2d241221f90ae49dba69b5c3ce45506258a7018c1fb7f0951805f4768ca002b5c738fa189e045787c850d5485e601174939c02e8e81d3e484c1a085eaf47"
            ],
            "expect": "0x28d01c44d46217e141e02783a89ffff35d3f91fd9ce91649fad6375fd5c0beca"
        },

        {
            "comment": "Get same payload again, the transaction should be excluded from this payload.",
            "method": "engine_getPayloadV1",
            "params": [
                ":payloadId -1"
            ],
            "expect": {
                "parentHash": "0x3b8fb240d288781d4aac94d3fd16809ee413bc99294a085798a589dae51ddd4a",
                "coinbase": "0xa94f5374fce5edbc8e2a8697c15331677e6ebf0b",
                "stateRoot": "0xca3149fa9e37db08d1cd49c9061db1002ef1cd58db2210f2115c8c989b2bdf45",
                "receiptRoot": "0x56e81f171bcc55a6ff8345e692c0f86e5b48e01b996cadc001622fb5e363b421",
                "logsBloom": "0x00000000000000000000000000000000000000000000000000000000000000000000000000000000000000000000000000000000000000000000000000000000000000000000000000000000000000000000000000000000000000000000000000000000000000000000000000000000000000000000000000000000000000000000000000000000000000000000000000000000000000000000000000000000000000000000000000000000000000000000000000000000000000000000000000000000000000000000000000000000000000000000000000000000000000000000000000000000000000000000000000000000000000000000000000000000",
                "random": "0x0000000000000000000000000000000000000000000000000000000000000000",
                "blockNumber": "0x1",
                "gasLimit": "0x1c9c380",
                "gasUsed": "0x0",
                "timestamp": "0x5",
                "extraData": "0x",
                "baseFeePerGas": "0x7",
                "blockHash": "0x3559e851470f6e7bbed1db474980683e8c315bfce99b2a6ef47c057c04de7858",
                "transactions": []
            }
        }
    ]
}